{"abi":[{"type":"function","name":"a","inputs":[],"outputs":[{"name":"","type":"uint8","internalType":"uint8"}],"stateMutability":"view"},{"type":"function","name":"b","inputs":[],"outputs":[{"name":"","type":"uint16","internalType":"uint16"}],"stateMutability":"view"},{"type":"function","name":"balances","inputs":[{"name":"","type":"address","internalType":"address"}],"outputs":[{"name":"","type":"uint256","internalType":"uint256"}],"stateMutability":"view"},{"type":"function","name":"c","inputs":[],"outputs":[{"name":"","type":"uint256","internalType":"uint256"}],"stateMutability":"view"},{"type":"function","name":"d","inputs":[],"outputs":[{"name":"","type":"uint64","internalType":"uint64"}],"stateMutability":"view"},{"type":"function","name":"dynamicArray","inputs":[{"name":"","type":"uint256","internalType":"uint256"}],"outputs":[{"name":"","type":"uint256","internalType":"uint256"}],"stateMutability":"view"},{"type":"function","name":"e","inputs":[],"outputs":[{"name":"","type":"uint64","internalType":"uint64"}],"stateMutability":"view"},{"type":"function","name":"f","inputs":[],"outputs":[{"name":"","type":"uint128","internalType":"uint128"}],"stateMutability":"view"},{"type":"function","name":"readArraySlot","inputs":[{"name":"arraySlot","type":"uint256","internalType":"uint256"},{"name":"index","type":"uint256","internalType":"uint256"}],"outputs":[{"name":"calculatedSlot","type":"uint256","internalType":"uint256"}],"stateMutability":"pure"},{"type":"function","name":"readMappingSlot","inputs":[{"name":"mappingSlot","type":"uint256","internalType":"uint256"},{"name":"key","type":"address","internalType":"address"}],"outputs":[{"name":"calculatedSlot","type":"uint256","internalType":"uint256"}],"stateMutability":"pure"},{"type":"function","name":"readSlot","inputs":[{"name":"slot","type":"uint256","internalType":"uint256"}],"outputs":[{"name":"value","type":"bytes32","internalType":"bytes32"}],"stateMutability":"view"},{"type":"function","name":"setBalance","inputs":[{"name":"account","type":"address","internalType":"address"},{"name":"amount","type":"uint256","internalType":"uint256"}],"outputs":[],"stateMutability":"nonpayable"},{"type":"function","name":"setDynamicArray","inputs":[{"name":"values","type":"uint256[]","internalType":"uint256[]"}],"outputs":[],"stateMutability":"nonpayable"},{"type":"function","name":"set_a","inputs":[{"name":"_a","type":"uint8","internalType":"uint8"}],"outputs":[],"stateMutability":"nonpayable"},{"type":"function","name":"set_b","inputs":[{"name":"_b","type":"uint16","internalType":"uint16"}],"outputs":[],"stateMutability":"nonpayable"},{"type":"function","name":"set_c","inputs":[{"name":"_c","type":"uint256","internalType":"uint256"}],"outputs":[],"stateMutability":"nonpayable"},{"type":"function","name":"totalSupply","inputs":[],"outputs":[{"name":"","type":"uint256","internalType":"uint256"}],"stateMutability":"view"}],"bytecode":{"object":"0x608060405234801561000f575f80fd5b506106438061001d5f395ff3fe608060405234801561000f575f80fd5b5060043610610106575f3560e01c80637681e42b1161009e578063c311defc1161006e578063c311defc14610282578063c3da42b8146102c8578063d001ecf2146102d1578063e30443bc146102e4578063ffae15ba146102f7575f80fd5b80637681e42b1461020c5780638a054ac21461021f5780639a9bdca71461024c578063a3299b1f1461025f575f80fd5b806326121ff0116100d957806326121ff01461016b57806327e235e31461019d57806334ccae42146101bc5780634df7e3d0146101e7575f80fd5b806302ce8af31461010a5780630dbe671f1461012f57806318160ddd1461014d5780631ff6373a14610156575b5f80fd5b61011c61011836600461041d565b5490565b6040519081526020015b60405180910390f35b5f5461013b9060ff1681565b60405160ff9091168152602001610126565b61011c60055481565b610169610164366004610448565b610317565b005b60025461018590600160801b90046001600160801b031681565b6040516001600160801b039091168152602001610126565b61011c6101ab36600461051c565b60046020525f908152604090205481565b6101696101ca366004610535565b5f805461ffff9092166101000262ffff0019909216919091179055565b5f546101f990610100900461ffff1681565b60405161ffff9091168152602001610126565b61016961021a36600461041d565b600155565b6002546102339067ffffffffffffffff1681565b60405167ffffffffffffffff9091168152602001610126565b61011c61025a36600461041d565b61032e565b61016961026d366004610556565b5f805460ff191660ff92909216919091179055565b61011c610290366004610576565b604080516001600160a01b03929092166020808401919091528282019390935280518083038201815260609092019052805191012090565b61011c60015481565b61011c6102df3660046105a0565b61034d565b6101696102f23660046105c0565b61038b565b6002546102339068010000000000000000900467ffffffffffffffff1681565b805161032a9060039060208401906103c0565b5050565b6003818154811061033d575f80fd5b5f91825260209091200154905081565b5f818360405160200161036291815260200190565b604051602081830303815290604052805190602001205f1c61038491906105e8565b9392505050565b6001600160a01b0382165f908152600460205260408120829055600580548392906103b79084906105e8565b90915550505050565b828054828255905f5260205f209081019282156103f9579160200282015b828111156103f95782518255916020019190600101906103de565b50610405929150610409565b5090565b5b80821115610405575f815560010161040a565b5f6020828403121561042d575f80fd5b5035919050565b634e487b7160e01b5f52604160045260245ffd5b5f6020808385031215610459575f80fd5b823567ffffffffffffffff80821115610470575f80fd5b818501915085601f830112610483575f80fd5b81358181111561049557610495610434565b8060051b604051601f19603f830116810181811085821117156104ba576104ba610434565b6040529182528482019250838101850191888311156104d7575f80fd5b938501935b828510156104f5578435845293850193928501926104dc565b98975050505050505050565b80356001600160a01b0381168114610517575f80fd5b919050565b5f6020828403121561052c575f80fd5b61038482610501565b5f60208284031215610545575f80fd5b813561ffff81168114610384575f80fd5b5f60208284031215610566575f80fd5b813560ff81168114610384575f80fd5b5f8060408385031215610587575f80fd5b8235915061059760208401610501565b90509250929050565b5f80604083850312156105b1575f80fd5b50508035926020909101359150565b5f80604083850312156105d1575f80fd5b6105da83610501565b946020939093013593505050565b8082018082111561060757634e487b7160e01b5f52601160045260245ffd5b9291505056fea264697066735822122003ba941610babde1790e7fcfaa21cd412ae85db3f6831f08e4d61416304d458964736f6c63430008140033","linkReferences":{}},"methodIdentifiers":{"a()":"0dbe671f","b()":"4df7e3d0","balances(address)":"27e235e3","c()":"c3da42b8","d()":"8a054ac2","dynamicArray(uint256)":"9a9bdca7","e()":"ffae15ba","f()":"26121ff0","readArraySlot(uint256,uint256)":"d001ecf2","readMappingSlot(uint256,address)":"c311defc","readSlot(uint256)":"02ce8af3","setBalance(address,uint256)":"e30443bc","setDynamicArray(uint256[])":"1ff6373a","set_a(uint8)":"a3299b1f","set_b(uint16)":"34ccae42","set_c(uint256)":"7681e42b","totalSupply()":"18160ddd"},"storageLayout":{"storage":[{"astId":4,"contract":"StorageLayout.sol:StorageLayout","label":"a","offset":0,"slot":"0","type":"t_uint8"},{"astId":6,"contract":"StorageLayout.sol:StorageLayout","label":"b","offset":1,"slot":"0","type":"t_uint16"},{"astId":8,"contract":"StorageLayout.sol:StorageLayout","label":"c","offset":0,"slot":"1","type":"t_uint256"},{"astId":10,"contract":"StorageLayout.sol:StorageLayout","label":"d","offset":0,"slot":"2","type":"t_uint64"},{"astId":12,"contract":"StorageLayout.sol:StorageLayout","label":"e","offset":8,"slot":"2","type":"t_uint64"},{"astId":14,"contract":"StorageLayout.sol:StorageLayout","label":"f","offset":16,"slot":"2","type":"t_uint128"},{"astId":17,"contract":"StorageLayout.sol:StorageLayout","label":"dynamicArray","offset":0,"slot":"3","type":"t_array(t_uint256)dyn_storage"},{"astId":21,"contract":"StorageLayout.sol:StorageLayout","label":"balances","offset":0,"slot":"4","type":"t_mapping(t_address,t_uint256)"},{"astId":23,"contract":"StorageLayout.sol:StorageLayout","label":"totalSupply","offset":0,"slot":"5","type":"t_uint256"}],"types":{"t_address":{"encoding":"inplace","label":"address","numberOfBytes":"20"},"t_array(t_uint256)dyn_storage":{"encoding":"dynamic_array","label":"uint256[]","numberOfBytes":"32","base":"t_uint256"},"t_mapping(t_address,t_uint256)":{"encoding":"mapping","key":"t_address","label":"mapping(address => uint256)","numberOfBytes":"32","value":"t_uint256"},"t_uint128":{"encoding":"inplace","label":"uint128","numberOfBytes":"16"},"t_uint16":{"encoding":"inplace","label":"uint16","numberOfBytes":"2"},"t_uint256":{"encoding":"inplace","label":"uint256","numberOfBytes":"32"},"t_uint64":{"encoding":"inplace","label":"uint64","numberOfBytes":"8"},"t_uint8":{"encoding":"inplace","label":"uint8","numberOfBytes":"1"}}},"id":0}